{
  "contractName": "SimpleStorage",
  "abi": [
    {
      "constant": true,
      "inputs": [],
      "name": "Dealer",
      "outputs": [
        {
          "name": "",
          "type": "address"
        }
      ],
      "payable": false,
      "stateMutability": "view",
      "type": "function"
    },
    {
      "constant": true,
      "inputs": [
        {
          "name": "",
          "type": "address"
        },
        {
          "name": "",
          "type": "uint256"
        }
      ],
      "name": "addrPlayers",
      "outputs": [
        {
          "name": "",
          "type": "address"
        }
      ],
      "payable": false,
      "stateMutability": "view",
      "type": "function"
    },
    {
      "constant": true,
      "inputs": [
        {
          "name": "",
          "type": "address"
        }
      ],
      "name": "games",
      "outputs": [
        {
          "name": "dealercardsValue",
          "type": "uint256"
        },
        {
          "name": "dealerBusted",
          "type": "bool"
        },
        {
          "name": "dealerBlackJack",
          "type": "bool"
        },
        {
          "name": "Inprocess",
          "type": "bool"
        }
      ],
      "payable": false,
      "stateMutability": "view",
      "type": "function"
    },
    {
      "constant": true,
      "inputs": [
        {
          "name": "",
          "type": "address"
        }
      ],
      "name": "players",
      "outputs": [
        {
          "name": "cardsValue",
          "type": "uint256"
        },
        {
          "name": "Busted",
          "type": "bool"
        },
        {
          "name": "BlackJack",
          "type": "bool"
        },
        {
          "name": "InGame",
          "type": "bool"
        },
        {
          "name": "Stand",
          "type": "bool"
        }
      ],
      "payable": false,
      "stateMutability": "view",
      "type": "function"
    },
    {
      "inputs": [],
      "payable": false,
      "stateMutability": "nonpayable",
      "type": "constructor"
    },
    {
      "constant": false,
      "inputs": [],
      "name": "placeBets",
      "outputs": [
        {
          "name": "",
          "type": "uint256"
        }
      ],
      "payable": true,
      "stateMutability": "payable",
      "type": "function"
    },
    {
      "constant": false,
      "inputs": [],
      "name": "startGame",
      "outputs": [
        {
          "name": "",
          "type": "uint256"
        },
        {
          "name": "",
          "type": "uint256"
        }
      ],
      "payable": true,
      "stateMutability": "payable",
      "type": "function"
    },
    {
      "constant": false,
      "inputs": [],
      "name": "reset",
      "outputs": [
        {
          "name": "",
          "type": "bool"
        }
      ],
      "payable": true,
      "stateMutability": "payable",
      "type": "function"
    },
    {
      "constant": false,
      "inputs": [],
      "name": "hit",
      "outputs": [
        {
          "name": "",
          "type": "uint256"
        },
        {
          "name": "",
          "type": "uint256[]"
        }
      ],
      "payable": false,
      "stateMutability": "nonpayable",
      "type": "function"
    },
    {
      "constant": false,
      "inputs": [],
      "name": "stand",
      "outputs": [],
      "payable": false,
      "stateMutability": "nonpayable",
      "type": "function"
    },
    {
      "constant": true,
      "inputs": [
        {
          "name": "addrPlayer",
          "type": "address"
        }
      ],
      "name": "getCardofPlayerHands",
      "outputs": [
        {
          "name": "",
          "type": "uint256[]"
        }
      ],
      "payable": false,
      "stateMutability": "view",
      "type": "function"
    },
    {
      "constant": true,
      "inputs": [],
      "name": "getCardofDealerHands",
      "outputs": [
        {
          "name": "",
          "type": "uint256[]"
        }
      ],
      "payable": false,
      "stateMutability": "view",
      "type": "function"
    },
    {
      "constant": true,
      "inputs": [
        {
          "name": "addrPlayer",
          "type": "address"
        }
      ],
      "name": "getValueofPlayerHands",
      "outputs": [
        {
          "name": "",
          "type": "uint256"
        }
      ],
      "payable": false,
      "stateMutability": "view",
      "type": "function"
    },
    {
      "constant": true,
      "inputs": [],
      "name": "getValueofDealerHands",
      "outputs": [
        {
          "name": "",
          "type": "uint256"
        }
      ],
      "payable": false,
      "stateMutability": "view",
      "type": "function"
    },
    {
      "constant": true,
      "inputs": [
        {
          "name": "addrPlayer",
          "type": "address"
        }
      ],
      "name": "getGameInfo",
      "outputs": [
        {
          "name": "",
          "type": "uint256[]"
        },
        {
          "name": "",
          "type": "uint256[]"
        },
        {
          "name": "",
          "type": "uint256"
        },
        {
          "name": "",
          "type": "uint256"
        },
        {
          "name": "",
          "type": "bool"
        }
      ],
      "payable": false,
      "stateMutability": "view",
      "type": "function"
    }
  ],
  "bytecode": "0x608060405234801561001057600080fd5b5060008033600360006101000a81548173ffffffffffffffffffffffffffffffffffffffff021916908373ffffffffffffffffffffffffffffffffffffffff16021790555060026000600360009054906101000a900473ffffffffffffffffffffffffffffffffffffffff1673ffffffffffffffffffffffffffffffffffffffff1673ffffffffffffffffffffffffffffffffffffffff168152602001908152602001600020915060016000600360009054906101000a900473ffffffffffffffffffffffffffffffffffffffff1673ffffffffffffffffffffffffffffffffffffffff1673ffffffffffffffffffffffffffffffffffffffff1681526020019081526020016000209050600060016000600360009054906101000a900473ffffffffffffffffffffffffffffffffffffffff1673ffffffffffffffffffffffffffffffffffffffff1673ffffffffffffffffffffffffffffffffffffffff16815260200190815260200160002060030160026101000a81548160ff021916908315150217905550600060016000600360009054906101000a900473ffffffffffffffffffffffffffffffffffffffff1673ffffffffffffffffffffffffffffffffffffffff1673ffffffffffffffffffffffffffffffffffffffff16815260200190815260200160002060030160006101000a81548160ff021916908315150217905550600060016000600360009054906101000a900473ffffffffffffffffffffffffffffffffffffffff1673ffffffffffffffffffffffffffffffffffffffff1673ffffffffffffffffffffffffffffffffffffffff16815260200190815260200160002060030160016101000a81548160ff0219169083151502179055505050612799806102a36000396000f3006080604052600436106100d0576000357c0100000000000000000000000000000000000000000000000000000000900463ffffffff1680630304f143146100d557806304cc30dd146101415780630ea901d21461015f578063173a0615146102585780631a623091146102af5780632ae3594a146102da5780632bbb880a1461034d578063325ce031146103da5780636a8eb0bb1461043157806379131a19146104c9578063c2897b1014610541578063d65ab5f214610558578063d826f88f1461057d578063e2eb41ff1461059f575b600080fd5b3480156100e157600080fd5b506100ea610622565b6040518080602001828103825283818151815260200191508051906020019060200280838360005b8381101561012d578082015181840152602081019050610112565b505050509050019250505060405180910390f35b6101496106dc565b6040518082815260200191505060405180910390f35b34801561016b57600080fd5b506101a0600480360381019080803573ffffffffffffffffffffffffffffffffffffffff16906020019092919050505061091a565b60405180806020018060200186815260200185815260200184151515158152602001838103835288818151815260200191508051906020019060200280838360005b838110156101fd5780820151818401526020810190506101e2565b50505050905001838103825287818151815260200191508051906020019060200280838360005b8381101561023f578082015181840152602081019050610224565b5050505090500197505050505050505060405180910390f35b34801561026457600080fd5b5061026d610b97565b604051808273ffffffffffffffffffffffffffffffffffffffff1673ffffffffffffffffffffffffffffffffffffffff16815260200191505060405180910390f35b3480156102bb57600080fd5b506102c4610bbd565b6040518082815260200191505060405180910390f35b3480156102e657600080fd5b506102ef610c29565b6040518083815260200180602001828103825283818151815260200191508051906020019060200280838360005b8381101561033857808201518184015260208101905061031d565b50505050905001935050505060405180910390f35b34801561035957600080fd5b50610398600480360381019080803573ffffffffffffffffffffffffffffffffffffffff16906020019092919080359060200190929190505050611273565b604051808273ffffffffffffffffffffffffffffffffffffffff1673ffffffffffffffffffffffffffffffffffffffff16815260200191505060405180910390f35b3480156103e657600080fd5b5061041b600480360381019080803573ffffffffffffffffffffffffffffffffffffffff1690602001909291905050506112c0565b6040518082815260200191505060405180910390f35b34801561043d57600080fd5b50610472600480360381019080803573ffffffffffffffffffffffffffffffffffffffff16906020019092919050505061130b565b6040518080602001828103825283818151815260200191508051906020019060200280838360005b838110156104b557808201518184015260208101905061049a565b505050509050019250505060405180910390f35b3480156104d557600080fd5b5061050a600480360381019080803573ffffffffffffffffffffffffffffffffffffffff1690602001909291905050506113a4565b6040518085815260200184151515158152602001831515151581526020018215151515815260200194505050505060405180910390f35b34801561054d57600080fd5b506105566113fb565b005b610560611619565b604051808381526020018281526020019250505060405180910390f35b610585611dcf565b604051808215151515815260200191505060405180910390f35b3480156105ab57600080fd5b506105e0600480360381019080803573ffffffffffffffffffffffffffffffffffffffff169060200190929190505050612211565b60405180868152602001851515151581526020018415151515815260200183151515158152602001821515151581526020019550505050505060405180910390f35b606060016000600360009054906101000a900473ffffffffffffffffffffffffffffffffffffffff1673ffffffffffffffffffffffffffffffffffffffff1673ffffffffffffffffffffffffffffffffffffffff1681526020019081526020016000206000018054806020026020016040519081016040528092919081815260200182805480156106d257602002820191906000526020600020905b8154815260200190600101908083116106be575b5050505050905090565b60008060008060016000600360009054906101000a900473ffffffffffffffffffffffffffffffffffffffff1673ffffffffffffffffffffffffffffffffffffffff1673ffffffffffffffffffffffffffffffffffffffff16815260200190815260200160002092508260030160029054906101000a900460ff1615151561076357600080fd5b60026000600360009054906101000a900473ffffffffffffffffffffffffffffffffffffffff1673ffffffffffffffffffffffffffffffffffffffff1673ffffffffffffffffffffffffffffffffffffffff1681526020019081526020016000209150813390806001815401808255809150509060018203906000526020600020016000909192909190916101000a81548173ffffffffffffffffffffffffffffffffffffffff021916908373ffffffffffffffffffffffffffffffffffffffff160217905550506000803373ffffffffffffffffffffffffffffffffffffffff1673ffffffffffffffffffffffffffffffffffffffff16815260200190815260200160002090508060020160029054906101000a900460ff1615151561088957600080fd5b60018160020160026101000a81548160ff02191690831515021790555060008160020160036101000a81548160ff02191690831515021790555060008160020160006101000a81548160ff02191690831515021790555060008160020160016101000a81548160ff021916908315150217905550600460008154809291906001019190505550600454935050505090565b60608060008060008060008773ffffffffffffffffffffffffffffffffffffffff1673ffffffffffffffffffffffffffffffffffffffff16815260200190815260200160002060000160016000600360009054906101000a900473ffffffffffffffffffffffffffffffffffffffff1673ffffffffffffffffffffffffffffffffffffffff1673ffffffffffffffffffffffffffffffffffffffff1681526020019081526020016000206000016000808973ffffffffffffffffffffffffffffffffffffffff1673ffffffffffffffffffffffffffffffffffffffff1681526020019081526020016000206001015460016000600360009054906101000a900473ffffffffffffffffffffffffffffffffffffffff1673ffffffffffffffffffffffffffffffffffffffff1673ffffffffffffffffffffffffffffffffffffffff1681526020019081526020016000206001015460016000600360009054906101000a900473ffffffffffffffffffffffffffffffffffffffff1673ffffffffffffffffffffffffffffffffffffffff1673ffffffffffffffffffffffffffffffffffffffff16815260200190815260200160002060030160029054906101000a900460ff1684805480602002602001604051908101604052809291908181526020018280548015610b2b57602002820191906000526020600020905b815481526020019060010190808311610b17575b5050505050945083805480602002602001604051908101604052809291908181526020018280548015610b7d57602002820191906000526020600020905b815481526020019060010190808311610b69575b505050505093509450945094509450945091939590929450565b600360009054906101000a900473ffffffffffffffffffffffffffffffffffffffff1681565b600060016000600360009054906101000a900473ffffffffffffffffffffffffffffffffffffffff1673ffffffffffffffffffffffffffffffffffffffff1673ffffffffffffffffffffffffffffffffffffffff16815260200190815260200160002060010154905090565b600060606000806000803373ffffffffffffffffffffffffffffffffffffffff1673ffffffffffffffffffffffffffffffffffffffff16815260200190815260200160002060020160039054906101000a900460ff16158015610cd857506000803373ffffffffffffffffffffffffffffffffffffffff1673ffffffffffffffffffffffffffffffffffffffff16815260200190815260200160002060020160009054906101000a900460ff16155b8015610d3057506000803373ffffffffffffffffffffffffffffffffffffffff1673ffffffffffffffffffffffffffffffffffffffff16815260200190815260200160002060020160019054906101000a900460ff16155b1515610d3b57600080fd5b6000803373ffffffffffffffffffffffffffffffffffffffff1673ffffffffffffffffffffffffffffffffffffffff168152602001908152602001600020600001610d91610d89603461227b565b60ff16612350565b9080600181540180825580915050906001820390600052602060002001600090919290919091505550610e546000803373ffffffffffffffffffffffffffffffffffffffff1673ffffffffffffffffffffffffffffffffffffffff168152602001908152602001600020600001805480602002602001604051908101604052809291908181526020018280548015610e4857602002820191906000526020600020905b815481526020019060010190808311610e34575b5050505050601561243b565b6000803373ffffffffffffffffffffffffffffffffffffffff1673ffffffffffffffffffffffffffffffffffffffff1681526020019081526020016000206001018190555060026000600360009054906101000a900473ffffffffffffffffffffffffffffffffffffffff1673ffffffffffffffffffffffffffffffffffffffff1673ffffffffffffffffffffffffffffffffffffffff168152602001908152602001600020915060156000803373ffffffffffffffffffffffffffffffffffffffff1673ffffffffffffffffffffffffffffffffffffffff1681526020019081526020016000206001015410151561104c5760156000803373ffffffffffffffffffffffffffffffffffffffff1673ffffffffffffffffffffffffffffffffffffffff168152602001908152602001600020600101541415610ff05760016000803373ffffffffffffffffffffffffffffffffffffffff1673ffffffffffffffffffffffffffffffffffffffff16815260200190815260200160002060020160016101000a81548160ff02191690831515021790555061104b565b60016000803373ffffffffffffffffffffffffffffffffffffffff1673ffffffffffffffffffffffffffffffffffffffff16815260200190815260200160002060020160006101000a81548160ff0219169083151502179055505b5b600090505b818054905081101561118a57600080838381548110151561106e57fe5b9060005260206000200160009054906101000a900473ffffffffffffffffffffffffffffffffffffffff1673ffffffffffffffffffffffffffffffffffffffff1673ffffffffffffffffffffffffffffffffffffffff16815260200190815260200160002060020160039054906101000a900460ff1680611172575060008083838154811015156110fb57fe5b9060005260206000200160009054906101000a900473ffffffffffffffffffffffffffffffffffffffff1673ffffffffffffffffffffffffffffffffffffffff1673ffffffffffffffffffffffffffffffffffffffff16815260200190815260200160002060020160009054906101000a900460ff165b151561117d5761126d565b8080600101915050611051565b611192612506565b506000803373ffffffffffffffffffffffffffffffffffffffff1673ffffffffffffffffffffffffffffffffffffffff168152602001908152602001600020600101546000803373ffffffffffffffffffffffffffffffffffffffff1673ffffffffffffffffffffffffffffffffffffffff1681526020019081526020016000206000018080548060200260200160405190810160405280929190818152602001828054801561126157602002820191906000526020600020905b81548152602001906001019080831161124d575b50505050509050935093505b50509091565b60026020528160005260406000208181548110151561128e57fe5b906000526020600020016000915091509054906101000a900473ffffffffffffffffffffffffffffffffffffffff1681565b60008060008373ffffffffffffffffffffffffffffffffffffffff1673ffffffffffffffffffffffffffffffffffffffff168152602001908152602001600020600101549050919050565b60606000808373ffffffffffffffffffffffffffffffffffffffff1673ffffffffffffffffffffffffffffffffffffffff16815260200190815260200160002060000180548060200260200160405190810160405280929190818152602001828054801561139857602002820191906000526020600020905b815481526020019060010190808311611384575b50505050509050919050565b60016020528060005260406000206000915090508060010154908060030160009054906101000a900460ff16908060030160019054906101000a900460ff16908060030160029054906101000a900460ff16905084565b60008060016000803373ffffffffffffffffffffffffffffffffffffffff1673ffffffffffffffffffffffffffffffffffffffff16815260200190815260200160002060020160036101000a81548160ff02191690831515021790555060056000815480929190600101919050555060026000600360009054906101000a900473ffffffffffffffffffffffffffffffffffffffff1673ffffffffffffffffffffffffffffffffffffffff1673ffffffffffffffffffffffffffffffffffffffff1681526020019081526020016000209150600090505b818054905081101561160b5760008083838154811015156114ef57fe5b9060005260206000200160009054906101000a900473ffffffffffffffffffffffffffffffffffffffff1673ffffffffffffffffffffffffffffffffffffffff1673ffffffffffffffffffffffffffffffffffffffff16815260200190815260200160002060020160039054906101000a900460ff16806115f35750600080838381548110151561157c57fe5b9060005260206000200160009054906101000a900473ffffffffffffffffffffffffffffffffffffffff1673ffffffffffffffffffffffffffffffffffffffff1673ffffffffffffffffffffffffffffffffffffffff16815260200190815260200160002060020160009054906101000a900460ff165b15156115fe57611615565b80806001019150506114d2565b611613612506565b505b5050565b60008060008060008060016000600360009054906101000a900473ffffffffffffffffffffffffffffffffffffffff1673ffffffffffffffffffffffffffffffffffffffff1673ffffffffffffffffffffffffffffffffffffffff16815260200190815260200160002093508360030160029054906101000a900460ff161515156116a357600080fd5b600060026000600360009054906101000a900473ffffffffffffffffffffffffffffffffffffffff1673ffffffffffffffffffffffffffffffffffffffff1673ffffffffffffffffffffffffffffffffffffffff1681526020019081526020016000208054905011151561171657600080fd5b60018460030160026101000a81548160ff02191690831515021790555060026000600360009054906101000a900473ffffffffffffffffffffffffffffffffffffffff1673ffffffffffffffffffffffffffffffffffffffff1673ffffffffffffffffffffffffffffffffffffffff1681526020019081526020016000209250600191505b60358210156117df57600084600201600084815260200190815260200160002060006101000a81548160ff021916908315150217905550818060010192505061179b565b600090505b60026000600360009054906101000a900473ffffffffffffffffffffffffffffffffffffffff1673ffffffffffffffffffffffffffffffffffffffff1673ffffffffffffffffffffffffffffffffffffffff16815260200190815260200160002080549050811015611c2f57600080848381548110151561186157fe5b9060005260206000200160009054906101000a900473ffffffffffffffffffffffffffffffffffffffff1673ffffffffffffffffffffffffffffffffffffffff1673ffffffffffffffffffffffffffffffffffffffff1681526020019081526020016000206000016118de6118d6603461227b565b60ff16612350565b9080600181540180825580915050906001820390600052602060002001600090919290919091505550600080848381548110151561191857fe5b9060005260206000200160009054906101000a900473ffffffffffffffffffffffffffffffffffffffff1673ffffffffffffffffffffffffffffffffffffffff1673ffffffffffffffffffffffffffffffffffffffff16815260200190815260200160002060000161199561198d603461227b565b60ff16612350565b9080600181540180825580915050906001820390600052602060002001600090919290919091505550611a9060008085848154811015156119d257fe5b9060005260206000200160009054906101000a900473ffffffffffffffffffffffffffffffffffffffff1673ffffffffffffffffffffffffffffffffffffffff1673ffffffffffffffffffffffffffffffffffffffff168152602001908152602001600020600001805480602002602001604051908101604052809291908181526020018280548015611a8457602002820191906000526020600020905b815481526020019060010190808311611a70575b5050505050601561243b565b6000808584815481101515611aa157fe5b9060005260206000200160009054906101000a900473ffffffffffffffffffffffffffffffffffffffff1673ffffffffffffffffffffffffffffffffffffffff1673ffffffffffffffffffffffffffffffffffffffff1681526020019081526020016000206001018190555060156000808584815481101515611b2057fe5b9060005260206000200160009054906101000a900473ffffffffffffffffffffffffffffffffffffffff1673ffffffffffffffffffffffffffffffffffffffff1673ffffffffffffffffffffffffffffffffffffffff168152602001908152602001600020600101541415611c225760016000808584815481101515611ba257fe5b9060005260206000200160009054906101000a900473ffffffffffffffffffffffffffffffffffffffff1673ffffffffffffffffffffffffffffffffffffffff1673ffffffffffffffffffffffffffffffffffffffff16815260200190815260200160002060020160016101000a81548160ff0219169083151502179055505b80806001019150506117e4565b83600001611c48611c40603461227b565b60ff16612350565b908060018154018082558091505090600182039060005260206000200160009091929091909150555083600001611c8a611c82603461227b565b60ff16612350565b9080600181540180825580915050906001820390600052602060002001600090919290919091505550611d1084600001805480602002602001604051908101604052809291908181526020018280548015611d0457602002820191906000526020600020905b815481526020019060010190808311611cf0575b5050505050601561243b565b8460010181905550601584600101541415611d435760018460030160016101000a81548160ff0219169083151502179055505b600080846000815481101515611d5557fe5b9060005260206000200160009054906101000a900473ffffffffffffffffffffffffffffffffffffffff1673ffffffffffffffffffffffffffffffffffffffff1673ffffffffffffffffffffffffffffffffffffffff16815260200190815260200160002060010154846001015495509550505050509091565b600080600080600060016000600360009054906101000a900473ffffffffffffffffffffffffffffffffffffffff1673ffffffffffffffffffffffffffffffffffffffff1673ffffffffffffffffffffffffffffffffffffffff168152602001908152602001600020935060008460030160026101000a81548160ff02191690831515021790555060026000600360009054906101000a900473ffffffffffffffffffffffffffffffffffffffff1673ffffffffffffffffffffffffffffffffffffffff1673ffffffffffffffffffffffffffffffffffffffff1681526020019081526020016000209250600191505b6035821015611f0357600084600201600084815260200190815260200160002060006101000a81548160ff0219169083151502179055508180600101925050611ebf565b600090505b6004548110156121285760156000808584815481101515611f2557fe5b9060005260206000200160009054906101000a900473ffffffffffffffffffffffffffffffffffffffff1673ffffffffffffffffffffffffffffffffffffffff1673ffffffffffffffffffffffffffffffffffffffff1681526020019081526020016000206001015414156120275760008060008584815481101515611fa757fe5b9060005260206000200160009054906101000a900473ffffffffffffffffffffffffffffffffffffffff1673ffffffffffffffffffffffffffffffffffffffff1673ffffffffffffffffffffffffffffffffffffffff16815260200190815260200160002060020160016101000a81548160ff0219169083151502179055505b600080848381548110151561203857fe5b9060005260206000200160009054906101000a900473ffffffffffffffffffffffffffffffffffffffff1673ffffffffffffffffffffffffffffffffffffffff1673ffffffffffffffffffffffffffffffffffffffff168152602001908152602001600020600080820160006120ae9190612706565b60018201600090556002820160006101000a81549060ff02191690556002820160016101000a81549060ff02191690556002820160026101000a81549060ff02191690556002820160036101000a81549060ff02191690555050600460008154809291906001900391905055508080600101915050611f08565b6015846001015414156121535760008460030160016101000a81548160ff0219169083151502179055505b8360000160006121639190612706565b83600101600090558360030160006101000a81549060ff021916905560026000600360009054906101000a900473ffffffffffffffffffffffffffffffffffffffff1673ffffffffffffffffffffffffffffffffffffffff1673ffffffffffffffffffffffffffffffffffffffff16815260200190815260200160002060006121ec9190612727565b600084600101819055508360030160029054906101000a900460ff1694505050505090565b60006020528060005260406000206000915090508060010154908060020160009054906101000a900460ff16908060020160019054906101000a900460ff16908060020160029054906101000a900460ff16908060020160039054906101000a900460ff16905085565b60008060066000815480929190600101919050555042600143034060065460405160200180848152602001836000191660001916815260200182815260200193505050506040516020818303038152906040526040518082805190602001908083835b60208310151561230357805182526020820191506020810190506020830392506122de565b6001836020036101000a038019825116818451168082178552505050505050905001915050604051809103902060019004905060018360ff168281151561234657fe5b0601915050919050565b60008060016000600360009054906101000a900473ffffffffffffffffffffffffffffffffffffffff1673ffffffffffffffffffffffffffffffffffffffff1673ffffffffffffffffffffffffffffffffffffffff168152602001908152602001600020905080600201600084815260200190815260200160002060009054906101000a900460ff1615612403576034831015156123ed57600092505b6001830192506123fc83612350565b9150612435565b600181600201600085815260200190815260200160002060006101000a81548160ff0219169083151502179055508291505b50919050565b6000806000806000806000945060009350600092505b87518310156124cf57600d888481518110151561246a57fe5b9060200190602002015181151561247d57fe5b069150600182141561249c578380600101945050600b850194506124c2565b600a8211806124ab5750600082145b156124bb57600a850194506124c1565b81850194505b5b8280600101935050612451565b600090505b838110156124f857868511156124eb57600a850394505b80806001019150506124d4565b849550505050505092915050565b606060008060016000600360009054906101000a900473ffffffffffffffffffffffffffffffffffffffff1673ffffffffffffffffffffffffffffffffffffffff1673ffffffffffffffffffffffffffffffffffffffff1681526020019081526020016000209150600090505b60118260010154101561262f5761259561258d603461227b565b60ff16612350565b9050816000018190806001815401808255809150509060018203906000526020600020016000909192909190915055506126228260000180548060200260200160405190810160405280929190818152602001828054801561261657602002820191906000526020600020905b815481526020019060010190808311612602575b5050505050601561243b565b8260010181905550612573565b600060016000600360009054906101000a900473ffffffffffffffffffffffffffffffffffffffff1673ffffffffffffffffffffffffffffffffffffffff1673ffffffffffffffffffffffffffffffffffffffff16815260200190815260200160002060030160026101000a81548160ff021916908315150217905550816000018054806020026020016040519081016040528092919081815260200182805480156126fa57602002820191906000526020600020905b8154815260200190600101908083116126e6575b50505050509250505090565b50805460008255906000526020600020908101906127249190612748565b50565b50805460008255906000526020600020908101906127459190612748565b50565b61276a91905b8082111561276657600081600090555060010161274e565b5090565b905600a165627a7a723058207ed28574a1655502179e706272f416b14c7ef62b531c10a0e2e5a76d0fe8b0e90029",
  "source": "pragma solidity ^0.4.18;\n\ncontract SimpleStorage {\n  \n  struct Player\n  {\n    uint[] cards;\n    uint cardsValue;\n    bool Busted;\n    bool BlackJack;\n    bool InGame;\n    bool Stand;\n  }\n  struct GameEntity\n  {\n    uint[] dealercards;\n    uint dealercardsValue;\n    mapping (uint => bool) usedCards;\n    bool dealerBusted;\n    bool dealerBlackJack;\n    bool Inprocess;\n      \n  }\n  \n  mapping(address => Player) public players;\n  mapping(address => GameEntity) public games;\n  mapping(address => address[]) public addrPlayers;\n  address public Dealer;\n  \n  uint numberOfplayers;\n  uint numberOfstands;\n  uint nonce;\n  \n  constructor() public\n  {\n    Dealer = msg.sender;\n    address[] storage addrList = addrPlayers[Dealer];\n    GameEntity storage gameInstance = games[Dealer];\n    games[Dealer].Inprocess = false;\n    games[Dealer].dealerBusted = false;\n    games[Dealer].dealerBlackJack = false;\n    \n  }\n\n\n  function placeBets() payable public returns(uint)\n  {\n      GameEntity storage gameInstance = games[Dealer];\n       //requre(Dealer != msg.sender)\n      require(!gameInstance.Inprocess);\n      //add player to the playerList\n     \n      address[] storage addrList = addrPlayers[Dealer];\n      addrList.push(msg.sender);\n\n      Player storage currentPlayer = players[msg.sender];\n      require(!currentPlayer.InGame);\n\n      currentPlayer.InGame = true;\n      currentPlayer.Stand = false;\n      currentPlayer.Busted = false;\n      currentPlayer.BlackJack = false;\n      \n      numberOfplayers++;\n      return numberOfplayers;\n  }\n  \n  function startGame() payable public returns(uint, uint)\n  {\n    //require( msg.sender == Dealer, \"Only Dlear start Game.\");\n    GameEntity storage gameInstance = games[Dealer];\n    \n    require(!gameInstance.Inprocess);\n    require(addrPlayers[Dealer].length > 0);\n    gameInstance.Inprocess = true;\n\n    address[] storage addrList = addrPlayers[Dealer];\n\n    for (uint i = 1; i < 53; i++)//Shuffling\n    {\n        gameInstance.usedCards[i] = false;\n    }\n    //deal card to player\n    for(uint j = 0; j < addrPlayers[Dealer].length; j++)\n    {\n        players[addrList[j]].cards.push(dealCard(randomNumber(52)));\n        players[addrList[j]].cards.push(dealCard(randomNumber(52)));\n        players[addrList[j]].cardsValue = sumScore(players[addrList[j]].cards, 21);\n        if(players[addrList[j]].cardsValue == 21)\n        {\n             players[addrList[j]].BlackJack = true;\n        }\n    }\n    \n    //deal card to dealer\n    gameInstance.dealercards.push(dealCard(randomNumber(52)));\n    gameInstance.dealercards.push(dealCard(randomNumber(52)));\n    gameInstance.dealercardsValue = sumScore(gameInstance.dealercards, 21);\n    if(gameInstance.dealercardsValue == 21)\n    {\n        gameInstance.dealerBlackJack = true;\n    }\n    \n    return (players[addrList[0]].cardsValue, gameInstance.dealercardsValue);\n    \n  }\n\n  function reset() payable public returns(bool\n  )\n  {\n    //require( msg.sender == Dealer, \"Only Dlear start Game.\");\n    GameEntity storage gameInstance = games[Dealer];\n    \n    gameInstance.Inprocess = false;\n\n    address[] storage addrList = addrPlayers[Dealer];\n\n    for (uint i = 1; i < 53; i++)//Shuffling\n    {\n        gameInstance.usedCards[i] = false;\n    }\n    //deal card to player\n    for(uint j = 0; j < numberOfplayers; j++)\n    {\n        if(players[addrList[j]].cardsValue == 21)\n        {\n             players[addrList[j]].BlackJack = false;\n        }\n        delete players[addrList[j]];\n        numberOfplayers--;\n\n    }\n    \n    //deal card to dealer\n    if(gameInstance.dealercardsValue == 21)\n    {\n        gameInstance.dealerBlackJack = false;\n    }\n    delete gameInstance.dealercards;\n    delete gameInstance.dealercardsValue;\n    delete gameInstance.dealerBusted;\n    delete addrPlayers[Dealer];\n    \n\n    gameInstance.dealercardsValue = 0;\n\n    \n    return gameInstance.Inprocess;\n    \n  }\n  \n  function dealCard(uint IndexCard) internal returns (uint)\n  {\n    GameEntity storage gameInstance = games[Dealer];\n        // indexcard : [1-52] the index of the deck\n        if(gameInstance.usedCards[IndexCard])\n        {\n            if(IndexCard >= 52)\n            {\n                IndexCard = 0;\n            }\n            \n            IndexCard = IndexCard + 1;\n\n            return dealCard(IndexCard);\n        }\n        gameInstance.usedCards[IndexCard] = true;\n        return uint(IndexCard);\n  }\n\n  function hit() public returns(uint, uint[])\n  {\n      //GameEntity storage gameInstance = games[Dealer];\n      require(!players[msg.sender].Stand && !players[msg.sender].Busted && !players[msg.sender].BlackJack);\n      players[msg.sender].cards.push(dealCard(randomNumber(52)));//deal a card and store in sender's hands\n      players[msg.sender].cardsValue = sumScore(players[msg.sender].cards, 21);// recored the totalScore of player\n\n      address[] storage addrList = addrPlayers[Dealer];\n\n      if(players[msg.sender].cardsValue >= 21)\n      {\n          if(players[msg.sender].cardsValue == 21)\n          {\n            players[msg.sender].BlackJack = true;\n          }\n          else\n          {\n            players[msg.sender].Busted = true;\n          }\n          \n      }\n\n      for(uint i = 0; i < addrList.length; i++)\n      {\n          if(!(players[addrList[i]].Stand || players[addrList[i]].Busted))\n          {\n            return;\n          }\n      }\n      {\n          DealerPlay();\n      }\n      \n      return (players[msg.sender].cardsValue, players[msg.sender].cards);\n      \n  }\n\n  function stand() public \n  {\n      players[msg.sender].Stand = true;\n      numberOfstands++;\n      \n      address[] storage addrList = addrPlayers[Dealer];\n\n      for(uint i = 0; i < addrList.length; i++)\n      {\n          if(!(players[addrList[i]].Stand || players[addrList[i]].Busted))\n          {\n            return;\n          }\n      }\n      {\n          DealerPlay();\n      }\n  }\n\n  function getCardofPlayerHands(address addrPlayer) public view returns(uint[] )\n  {\n      return (players[addrPlayer].cards);\n  }\n    function getCardofDealerHands() public view returns(uint[])\n  {\n      return (games[Dealer].dealercards);\n  }\n    function getValueofPlayerHands(address addrPlayer) public view returns(uint)\n  {\n      return (players[addrPlayer].cardsValue);\n  }\n      function getValueofDealerHands() public view returns(uint)\n  {\n      return (games[Dealer].dealercardsValue);\n  }\n  function getGameInfo(address addrPlayer) public view returns(uint[], uint[], uint, uint, bool)\n  {\n      return (players[addrPlayer].cards, games[Dealer].dealercards, players[addrPlayer].cardsValue, games[Dealer].dealercardsValue, games[Dealer].Inprocess);\n  }\n\n\n  function randomNumber(uint8 max) internal returns (uint8 result) \n  {\n        nonce++;\n        uint256 value = uint256(keccak256(abi.encodePacked(now, blockhash(block.number - 1), nonce)));\n        return uint8(value % max + 1); // [1, max]\n  }\n  function DealerPlay() internal returns(uint[] )\n  {\n      GameEntity storage gameInstance = games[Dealer];\n\n      uint newCard = 0;\n      while(gameInstance.dealercardsValue < 17)\n      {\n        newCard = dealCard(randomNumber(52));\n        gameInstance.dealercards.push(newCard);\n        gameInstance.dealercardsValue = sumScore(gameInstance.dealercards, 21);\n      }\n     games[Dealer].Inprocess = false;\n\n      return gameInstance.dealercards;\n  }\n  function sumScore(uint[] cards , uint maxScore) internal pure returns(uint)\n  {\n      uint totalScore = 0;\n      uint numberOfAce = 0;\n        for (uint i = 0; i < cards.length; i++) \n        {\n            uint cardValue = cards[i] % 13;\n            if (cardValue == 1)// Ace\n            {\n                numberOfAce++;\n                totalScore = totalScore + 11;\n            }\n            else if (cardValue > 10 || cardValue == 0) // J Q K\n            {\n                totalScore = totalScore + 10;\n            }\n            else \n            {\n                totalScore = totalScore + cardValue;\n            }\n        }\n        for(uint j = 0; j < numberOfAce; j++)\n        {\n            if (totalScore > maxScore)\n            {\n                totalScore = totalScore - 10;\n            }\n        }\n        return totalScore;\n  }\n\n}\n\n",
  "sourcePath": "/Users/lujiaxiong/Desktop/myDapp/contracts/SimpleStorage.sol",
  "compiler": {
    "name": "solc",
    "version": "0.4.24+commit.e67f0147.Emscripten.clang"
  },
  "schemaVersion": "2.0.1",
  "updatedAt": "2018-08-24T11:32:41.861Z"
}